{"abi":[{"type":"function","name":"isWatching","inputs":[{"name":"","type":"address","internalType":"address"},{"name":"","type":"address","internalType":"address"}],"outputs":[{"name":"","type":"bool","internalType":"bool"}],"stateMutability":"view"},{"type":"function","name":"totalWatches","inputs":[],"outputs":[{"name":"","type":"uint256","internalType":"uint256"}],"stateMutability":"view"},{"type":"function","name":"unwatch","inputs":[{"name":"target","type":"address","internalType":"address"}],"outputs":[],"stateMutability":"nonpayable"},{"type":"function","name":"watch","inputs":[{"name":"target","type":"address","internalType":"address"}],"outputs":[],"stateMutability":"nonpayable"},{"type":"function","name":"watchMany","inputs":[{"name":"targets","type":"address[]","internalType":"address[]"}],"outputs":[],"stateMutability":"nonpayable"},{"type":"function","name":"watcherCount","inputs":[{"name":"","type":"address","internalType":"address"}],"outputs":[{"name":"","type":"uint256","internalType":"uint256"}],"stateMutability":"view"},{"type":"event","name":"Unwatched","inputs":[{"name":"watcher","type":"address","indexed":true,"internalType":"address"},{"name":"target","type":"address","indexed":true,"internalType":"address"},{"name":"timestamp","type":"uint256","indexed":false,"internalType":"uint256"}],"anonymous":false},{"type":"event","name":"Watched","inputs":[{"name":"watcher","type":"address","indexed":true,"internalType":"address"},{"name":"target","type":"address","indexed":true,"internalType":"address"},{"name":"timestamp","type":"uint256","indexed":false,"internalType":"uint256"}],"anonymous":false}],"bytecode":{"object":"0x6080604052348015600e575f5ffd5b506105ac8061001c5f395ff3fe608060405234801561000f575f5ffd5b5060043610610060575f3560e01c80632805cf8b146100645780634050c937146100a357806357e6690a146100b857806358e2cd76146100cb57806397a42de7146100de578063b16c15bf1461010b575b5f5ffd5b61008e610072366004610489565b5f60208181529281526040808220909352908152205460ff1681565b60405190151581526020015b60405180910390f35b6100b66100b13660046104ba565b610114565b005b6100b66100c63660046104da565b610202565b6100b66100d93660046104ba565b610326565b6100fd6100ec3660046104ba565b60016020525f908152604090205481565b60405190815260200161009a565b6100fd60025481565b335f908152602081815260408083206001600160a01b038516845290915290205460ff166101785760405162461bcd60e51b815260206004820152600c60248201526b6e6f74207761746368696e6760a01b60448201526064015b60405180910390fd5b335f908152602081815260408083206001600160a01b03851684528252808320805460ff1916905560019182905282208054919290916101b990849061055f565b90915550506040514281526001600160a01b0382169033907fdc65864ee30a251aa2ceeeb22faf3700eaa1aab7b05675554cb40134210c4815906020015b60405180910390a350565b5f5b81811015610321575f83838381811061021f5761021f610578565b905060200201602081019061023491906104ba565b90506001600160a01b0381161580159061026f5750335f908152602081815260408083206001600160a01b038516845290915290205460ff16155b1561031857335f908152602081815260408083206001600160a01b03851684528252808320805460ff191660019081179091559182905282208054919290916102b990849061058c565b92505081905550600160025f8282546102d2919061058c565b90915550506040514281526001600160a01b0382169033907f04481b8056d795d5913515325a6ced8c831e59fe865e48a83a7dfdb45952161d9060200160405180910390a35b50600101610204565b505050565b6001600160a01b03811661036a5760405162461bcd60e51b815260206004820152600b60248201526a1e995c9bc81d185c99d95d60aa1b604482015260640161016f565b335f908152602081815260408083206001600160a01b038516845290915290205460ff16156103ce5760405162461bcd60e51b815260206004820152601060248201526f616c7265616479207761746368696e6760801b604482015260640161016f565b335f908152602081815260408083206001600160a01b03851684528252808320805460ff1916600190811790915591829052822080549192909161041390849061058c565b92505081905550600160025f82825461042c919061058c565b90915550506040514281526001600160a01b0382169033907f04481b8056d795d5913515325a6ced8c831e59fe865e48a83a7dfdb45952161d906020016101f7565b80356001600160a01b0381168114610484575f5ffd5b919050565b5f5f6040838503121561049a575f5ffd5b6104a38361046e565b91506104b16020840161046e565b90509250929050565b5f602082840312156104ca575f5ffd5b6104d38261046e565b9392505050565b5f5f602083850312156104eb575f5ffd5b823567ffffffffffffffff811115610501575f5ffd5b8301601f81018513610511575f5ffd5b803567ffffffffffffffff811115610527575f5ffd5b8560208260051b840101111561053b575f5ffd5b6020919091019590945092505050565b634e487b7160e01b5f52601160045260245ffd5b818103818111156105725761057261054b565b92915050565b634e487b7160e01b5f52603260045260245ffd5b808201808211156105725761057261054b56fea164736f6c6343000821000a","linkReferences":{}},"methodIdentifiers":{"isWatching(address,address)":"2805cf8b","totalWatches()":"b16c15bf","unwatch(address)":"4050c937","watch(address)":"58e2cd76","watchMany(address[])":"57e6690a","watcherCount(address)":"97a42de7"},"id":0}